{
  "_format": "hh-sol-artifact-1",
  "contractName": "ViewBTC",
  "sourceName": "contracts/ViewBTC.sol",
  "abi": [
    {
      "inputs": [],
      "name": "DIFF1_TARGET",
      "outputs": [
        {
          "internalType": "uint256",
          "name": "",
          "type": "uint256"
        }
      ],
      "stateMutability": "view",
      "type": "function"
    },
    {
      "inputs": [],
      "name": "RETARGET_PERIOD",
      "outputs": [
        {
          "internalType": "uint256",
          "name": "",
          "type": "uint256"
        }
      ],
      "stateMutability": "view",
      "type": "function"
    },
    {
      "inputs": [],
      "name": "RETARGET_PERIOD_BLOCKS",
      "outputs": [
        {
          "internalType": "uint256",
          "name": "",
          "type": "uint256"
        }
      ],
      "stateMutability": "view",
      "type": "function"
    }
  ],
  "bytecode": "0x60b0610039600b82828239805160001a60731461002c57634e487b7160e01b600052600060045260246000fd5b30600052607381538281f3fe730000000000000000000000000000000000000000301460806040526004361060475760003560e01c8063056e04ec14604c5780638cc71569146067578063d4258ca714606f575b600080fd5b60556212750081565b60405190815260200160405180910390f35b60556107e081565b605561ffff60d01b8156fea2646970667358221220525db0eeb58bfd95c0b0b916bc8b287681cc922b98c6711f292983c1a73aebfb64736f6c63430008090033",
  "linkReferences": {},
  "deployedLinkReferences": {}
}