{
  "_format": "hh-sol-artifact-1",
  "contractName": "Schnorr",
  "sourceName": "contracts/Schnorr.sol",
  "abi": [
    {
      "inputs": [],
      "name": "Q",
      "outputs": [
        {
          "internalType": "uint256",
          "name": "",
          "type": "uint256"
        }
      ],
      "stateMutability": "view",
      "type": "function"
    }
  ],
  "bytecode": "0x6098610038600b82828239805160001a607314602b57634e487b7160e01b600052600060045260246000fd5b30600052607381538281f3fe730000000000000000000000000000000000000000301460806040526004361060335760003560e01c8063e493ef8c146038575b600080fd5b605070014551231950b75fc4402da1732fc9bebe1981565b60405190815260200160405180910390f3fea264697066735822122072fea4fce7e842abf3b7f3a484d0161581fe9a412d7c6c5a1d58b3993536b15f64736f6c63430008090033",
  "linkReferences": {},
  "deployedLinkReferences": {}
}