{
  "_format": "hh-sol-artifact-1",
  "contractName": "BTC",
  "sourceName": "contracts/BTC.sol",
  "abi": [
    {
      "inputs": [
        {
          "internalType": "bytes32",
          "name": "message",
          "type": "bytes32"
        },
        {
          "internalType": "uint8",
          "name": "v",
          "type": "uint8"
        },
        {
          "internalType": "bytes32",
          "name": "r",
          "type": "bytes32"
        },
        {
          "internalType": "bytes32",
          "name": "s",
          "type": "bytes32"
        }
      ],
      "name": "recoverPersonalSignPublicKey",
      "outputs": [
        {
          "internalType": "bytes",
          "name": "",
          "type": "bytes"
        }
      ],
      "stateMutability": "pure",
      "type": "function"
    }
  ],
  "bytecode": "0x610b8461003a600b82828239805160001a60731461002d57634e487b7160e01b600052600060045260246000fd5b30600052607381538281f3fe73000000000000000000000000000000000000000030146080604052600436106100355760003560e01c806362d5fa821461003a575b600080fd5b61004d6100483660046109c7565b610063565b60405161005a9190610a3a565b60405180910390f35b606060006040518060400160405280601c81526020017b0ca2ba3432b932bab69029b4b3b732b21026b2b9b9b0b3b29d05199960211b8152509050600081876040516020016100b3929190610a6d565b60408051601f19818403018152919052805160209091012090506000806100e6836100df601b8b610aa5565b8989610116565b60408051602081019390935282810191909152805180830382018152606090920190529998505050505050505050565b600080806401000003d019610138607f600189901c166401000003d019610ade565b860890506401000003d019811180610161575070014551231950b75fc4402da1732fc9bebe1984115b8061017d575070014551231950b75fc4402da1732fc9bebe1985115b80610186575083155b8061018f575084155b8061019d575060018660ff16115b156101af57600080925092505061033e565b60006101cd8670014551231950b75fc4402da1732fc9bebe19610347565b905060006401000003d0198060076401000003d01960008709086401000003d01980868709860908905061021d81600461020e6401000003d0196001610afd565b6102189190610b15565b61041a565b9050600061022e60ff8a1683610afd565b610239906002610afd565b6001161561025657610251826401000003d019610b37565b610258565b815b9050600080806102db70014551231950b75fc4402da1732fc9bebe196102908f70014551231950b75fc4402da1732fc9bebe19610b37565b88097f79be667ef9dcbbac55a06295ce870b07029bfcdb2dce28d959f2815b16f817987f483ada7726a3c4655da4fbfc0e1108a8fd17b448a68554199c47d08ffb10d4b860016104ca565b925092509250600080600061031570014551231950b75fc4402da1732fc9bebe198061030957610309610ac8565b8e8b098b8960016104ca565b92509250925060008061032c888888888888610543565b909e509c505050505050505050505050505b94509492505050565b600082158015906103585750818314155b801561036357508115155b6103a55760405162461bcd60e51b815260206004820152600e60248201526d24b73b30b634b210373ab6b132b960911b60448201526064015b60405180910390fd5b6000600183825b861561040d576103bc8783610b15565b90508286806103cd576103cd610ac8565b87806103db576103db610ac8565b8584096103e89089610b37565b86089094509250866103fa8183610ade565b6104049084610b37565b975091506103ac565b5091925050505b92915050565b60008261042957506000610414565b8161043657506001610414565b6001600160ff1b5b80156104c2576401000003d0198185161515860a6401000003d0198485090991506401000003d0196002820485161515860a6401000003d0198485090991506401000003d0196004820485161515860a6401000003d0198485090991506401000003d0196008820485161515860a6401000003d0198485090991506010900461043e565b509392505050565b60008080866104e0575084915083905082610539565b8660008060015b831561053057600184161561050c576105048383838d8d8d6105bb565b919450925090505b610517600285610b15565b93506105248a8a8a610850565b919b50995097506104e7565b91955093509150505b9450945094915050565b6000806000806000878b1415610587576401000003d019878b0861057057600080945094505050506105b0565b61057b8b8b8b610850565b9194509250905061059d565b6105958b8b8b8b8b8b6105bb565b919450925090505b6105a8838383610957565b945094505050505b965096945050505050565b60008080881580156105cb575087155b156105dd575084915083905082610844565b851580156105e9575084155b156105fb575087915086905085610844565b6106036109a9565b6401000003d0198889098082526401000003d01990890960208201526401000003d019858009604082018190526401000003d0199086096060820152604080516080810182529082015181906401000003d019908d0981526020016401000003d01983600360200201518c0981526020016401000003d01983600060200201518a0981526020016401000003d019836001602002015189099052604081015181519192501415806106bc57506060810151602082015114155b6107085760405162461bcd60e51b815260206004820152601e60248201527f557365206a6163446f75626c652066756e6374696f6e20696e73746561640000604482015260640161039c565b6107106109a9565b81516401000003d019906107249082610b37565b604084015108815260208201516401000003d019906107439082610b37565b606084015108602082015280516401000003d0199080096040820181905281516401000003d0199109606082018190526000906401000003d019906107889082610b37565b60208401516401000003d01990800908604083015184519192506401000003d0199182918291096002096107c2906401000003d019610b37565b8208905060006401000003d019806107e0846401000003d019610b37565b604086015187516401000003d0199190090860208501510990506401000003d019808460036020020151866001602002015109610823906401000003d019610b37565b8208905060006401000003d019808a8e098551099297509095509093505050505b96509650969350505050565b600080808361086657508491508390508261094e565b60006401000003d019878809905060006401000003d019878809905060006401000003d019878809905060006401000003d01980848c09600409905060006401000003d019806401000003d0198586096000096401000003d019876003090890506401000003d019808384086108e2906401000003d019610b37565b6401000003d0198384090894506401000003d019806401000003d019868709600809610914906401000003d019610b37565b6401000003d0198061092c896401000003d019610b37565b860884090893506401000003d019808a8c096002099497509295509293505050505b93509350939050565b600080600061096c846401000003d019610347565b905060006401000003d019828309905060006401000003d019828909905060006401000003d0198084860989099199919850909650505050505050565b60405180608001604052806004906020820280368337509192915050565b600080600080608085870312156109dd57600080fd5b84359350602085013560ff811681146109f557600080fd5b93969395505050506040820135916060013590565b60005b83811015610a25578181015183820152602001610a0d565b83811115610a34576000848401525b50505050565b6020815260008251806020840152610a59816040850160208701610a0a565b601f01601f19169190910160400192915050565b60008351610a7f818460208801610a0a565b9190910191825250602001919050565b634e487b7160e01b600052601160045260246000fd5b600060ff821660ff841680821015610abf57610abf610a8f565b90039392505050565b634e487b7160e01b600052601260045260246000fd5b6000816000190483118215151615610af857610af8610a8f565b500290565b60008219821115610b1057610b10610a8f565b500190565b600082610b3257634e487b7160e01b600052601260045260246000fd5b500490565b600082821015610b4957610b49610a8f565b50039056fea2646970667358221220d8b7453f086988e239548d157cd14d8fd571e1effdeffd7bf3a9d0fc119a41a064736f6c63430008090033",
  "linkReferences": {},
  "deployedLinkReferences": {}
}