{
  "_format": "hh-sol-artifact-1",
  "contractName": "ALBA",
  "sourceName": "contracts/ALBA.sol",
  "abi": [
    {
      "inputs": [
        {
          "internalType": "address",
          "name": "_prover",
          "type": "address"
        },
        {
          "internalType": "address",
          "name": "_verifier",
          "type": "address"
        }
      ],
      "stateMutability": "nonpayable",
      "type": "constructor"
    },
    {
      "anonymous": false,
      "inputs": [
        {
          "indexed": false,
          "internalType": "string",
          "name": "label",
          "type": "string"
        },
        {
          "indexed": false,
          "internalType": "address",
          "name": "addr",
          "type": "address"
        },
        {
          "indexed": false,
          "internalType": "uint256",
          "name": "amount",
          "type": "uint256"
        }
      ],
      "name": "lockEvent",
      "type": "event"
    },
    {
      "anonymous": false,
      "inputs": [
        {
          "indexed": false,
          "internalType": "string",
          "name": "label",
          "type": "string"
        },
        {
          "indexed": false,
          "internalType": "bool",
          "name": "status",
          "type": "bool"
        }
      ],
      "name": "stateEvent",
      "type": "event"
    },
    {
      "inputs": [],
      "name": "bridge",
      "outputs": [
        {
          "internalType": "bytes32",
          "name": "fundTxId",
          "type": "bytes32"
        },
        {
          "internalType": "bytes",
          "name": "fundTxScript",
          "type": "bytes"
        },
        {
          "internalType": "bytes4",
          "name": "fundTxIndx",
          "type": "bytes4"
        },
        {
          "internalType": "bytes",
          "name": "sighash",
          "type": "bytes"
        },
        {
          "internalType": "bytes",
          "name": "pkPUncompr",
          "type": "bytes"
        },
        {
          "internalType": "bytes",
          "name": "pkVUncompr",
          "type": "bytes"
        },
        {
          "internalType": "uint256",
          "name": "timelock",
          "type": "uint256"
        },
        {
          "internalType": "uint256",
          "name": "timelockDisp",
          "type": "uint256"
        },
        {
          "internalType": "uint256",
          "name": "balDistr",
          "type": "uint256"
        }
      ],
      "stateMutability": "view",
      "type": "function"
    },
    {
      "inputs": [
        {
          "internalType": "bytes",
          "name": "CT_P_locked",
          "type": "bytes"
        },
        {
          "internalType": "bytes",
          "name": "CT_V_unlocked",
          "type": "bytes"
        }
      ],
      "name": "dispute",
      "outputs": [],
      "stateMutability": "nonpayable",
      "type": "function"
    },
    {
      "inputs": [
        {
          "internalType": "bytes",
          "name": "sigP",
          "type": "bytes"
        },
        {
          "internalType": "bytes",
          "name": "sigV",
          "type": "bytes"
        },
        {
          "internalType": "uint256",
          "name": "seqNumber",
          "type": "uint256"
        }
      ],
      "name": "optimisticSubmitProof",
      "outputs": [],
      "stateMutability": "nonpayable",
      "type": "function"
    },
    {
      "inputs": [],
      "name": "paymentChan",
      "outputs": [
        {
          "internalType": "uint256",
          "name": "balP",
          "type": "uint256"
        },
        {
          "internalType": "uint256",
          "name": "balV",
          "type": "uint256"
        },
        {
          "internalType": "bytes32",
          "name": "rKey",
          "type": "bytes32"
        }
      ],
      "stateMutability": "view",
      "type": "function"
    },
    {
      "inputs": [
        {
          "internalType": "string",
          "name": "revSecret",
          "type": "string"
        }
      ],
      "name": "resolveInvalidDispute",
      "outputs": [],
      "stateMutability": "nonpayable",
      "type": "function"
    },
    {
      "inputs": [
        {
          "internalType": "bytes",
          "name": "CT_P_unlocked",
          "type": "bytes"
        }
      ],
      "name": "resolveValidDispute",
      "outputs": [],
      "stateMutability": "nonpayable",
      "type": "function"
    },
    {
      "inputs": [],
      "name": "settle",
      "outputs": [],
      "stateMutability": "payable",
      "type": "function"
    },
    {
      "inputs": [
        {
          "internalType": "bytes32",
          "name": "fundTxId",
          "type": "bytes32"
        },
        {
          "internalType": "bytes",
          "name": "fundTxScript",
          "type": "bytes"
        },
        {
          "internalType": "bytes4",
          "name": "fundTxIndx",
          "type": "bytes4"
        },
        {
          "internalType": "bytes",
          "name": "sighash",
          "type": "bytes"
        },
        {
          "internalType": "bytes",
          "name": "pkPUncompr",
          "type": "bytes"
        },
        {
          "internalType": "bytes",
          "name": "pkVUncompr",
          "type": "bytes"
        },
        {
          "internalType": "uint256",
          "name": "timelock",
          "type": "uint256"
        },
        {
          "internalType": "uint256",
          "name": "timelockDisp",
          "type": "uint256"
        },
        {
          "internalType": "bytes",
          "name": "sigP",
          "type": "bytes"
        },
        {
          "internalType": "bytes",
          "name": "sigV",
          "type": "bytes"
        }
      ],
      "name": "setup",
      "outputs": [],
      "stateMutability": "nonpayable",
      "type": "function"
    },
    {
      "inputs": [],
      "name": "state",
      "outputs": [
        {
          "internalType": "bool",
          "name": "coinsLocked",
          "type": "bool"
        },
        {
          "internalType": "bool",
          "name": "setupDone",
          "type": "bool"
        },
        {
          "internalType": "bool",
          "name": "proofSubmitted",
          "type": "bool"
        },
        {
          "internalType": "bool",
          "name": "disputeOpened",
          "type": "bool"
        },
        {
          "internalType": "bool",
          "name": "disputeClosedP",
          "type": "bool"
        },
        {
          "internalType": "bool",
          "name": "disputeClosedV",
          "type": "bool"
        }
      ],
      "stateMutability": "view",
      "type": "function"
    },
    {
      "inputs": [
        {
          "internalType": "bytes",
          "name": "CT_P_unlocked",
          "type": "bytes"
        },
        {
          "internalType": "bytes",
          "name": "CT_V_unlocked",
          "type": "bytes"
        }
      ],
      "name": "submitProof",
      "outputs": [],
      "stateMutability": "nonpayable",
      "type": "function"
    },
    {
      "stateMutability": "payable",
      "type": "receive"
    }
  ],
  "bytecode": "0x60806040523480156200001157600080fd5b506040516200525238038062005252833981016040819052620000349162000083565b600e80546001600160a01b039384166001600160a01b031991821617909155600f8054929093169116179055620000bb565b80516001600160a01b03811681146200007e57600080fd5b919050565b600080604083850312156200009757600080fd5b620000a28362000066565b9150620000b26020840162000066565b90509250929050565b61518780620000cb6000396000f3fe6080604052600436106100855760003560e01c80630cb823691461011f57806311da60b4146101415780633aef147714610149578063467edf221461016957806361f284ea146101895780637236d92f146101a957806376155391146101c9578063c19d93fb146101e9578063db67a53014610271578063e78cea92146102ab57600080fd5b3661011a57336000908152600d6020526040902034908190556010546100ab9190614712565b6010556009805460ff19166001179055604080516060808252600d908201526c436f696e73206c6f636b65642160981b6080820152336020820152348183015290517f1c6aa042137d34194dd57b7ed5bb0321c3c734d38540b3a9f335a6ae7092dffe9160a0908290030190a1005b600080fd5b34801561012b57600080fd5b5061013f61013a3660046147b5565b6102d5565b005b61013f6104e8565b34801561015557600080fd5b5061013f61016436600461481d565b610a37565b34801561017557600080fd5b5061013f610184366004614880565b610f2d565b34801561019557600080fd5b5061013f6101a4366004614909565b611174565b3480156101b557600080fd5b5061013f6101c4366004614a2e565b6113ba565b3480156101d557600080fd5b5061013f6101e436600461481d565b61186b565b3480156101f557600080fd5b506009546102339060ff80821691610100810482169162010000820481169163010000008104821691600160201b8204811691600160281b90041686565b604080519615158752941515602087015292151593850193909352151560608401529015156080830152151560a082015260c0015b60405180910390f35b34801561027d57600080fd5b50600a54600b54600c5461029092919083565b60408051938452602084019290925290820152606001610268565b3480156102b757600080fd5b506102c0611b77565b60405161026899989796959493929190614aba565b6007546006546102e59190614712565b42108015610341575060095460ff1615156001148015610312575060095460ff6101009091041615156001145b8015610327575060095462010000900460ff16155b801561034157506009546301000000900460ff1615156001145b801561040a5750600280826040516103599190614b43565b602060405180830381855afa158015610376573d6000803e3d6000fd5b5050506040513d601f19601f820116820180604052508101906103999190614b5f565b6040516020016103ab91815260200190565b60408051601f19818403018152908290526103c591614b43565b602060405180830381855afa1580156103e2573d6000803e3d6000fd5b5050506040513d601f19601f820116820180604052508101906104059190614b5f565b600c54145b15610488576009805460ff60281b1916600160281b908117918290556040516000805160206151328339815191529261047d92900460ff1690604080825260189082015277125b9d985b1a5908111a5cdc1d5d19481c995cdbdb1d995960421b6060820152901515602082015260800190565b60405180910390a150565b60095460408051818152601a9181019190915279125b9d985b1a5908111a5cdc1d5d19481d5b9c995cdbdb1d995960321b6060820152600160281b90910460ff16151560208201526000805160206151328339815191529060800161047d565b60095462010000900460ff1615156001148061052b57506009546301000000900460ff161515600114801561052b5750600954600160201b900460ff1615156001145b156106d157600e546008546000916001600160a01b03169061054f90606490614b78565b60105461055c9190614b9a565b604051600081818185875af1925050503d8060008114610598576040519150601f19603f3d011682016040523d82523d6000602084013e61059d565b606091505b50509050806105c75760405162461bcd60e51b81526004016105be90614bb9565b60405180910390fd5b600f546008546000916001600160a01b0316906105e690606490614b78565b6105f1906001614be5565b6010546105fe9190614b9a565b604051600081818185875af1925050503d806000811461063a576040519150601f19603f3d011682016040523d82523d6000602084013e61063f565b606091505b50509050806106605760405162461bcd60e51b81526004016105be90614bb9565b60408051818152602b918101919091527f56616c69642070726f6f66207375626d697474656420616e642066756e64732060608201526a191a5cdd1c9a589d5d195960aa1b6080820152600160208201526000805160206151328339815191529060a0015b60405180910390a15050565b6009546301000000900460ff161515600114801561070e5750600954600160201b900460ff1615801561070e5750600954600160281b900460ff16155b156107d657600e546010546040516000926001600160a01b031691908381818185875af1925050503d8060008114610762576040519150601f19603f3d011682016040523d82523d6000602084013e610767565b606091505b50509050806107885760405162461bcd60e51b81526004016105be90614bb9565b60408051818152601481830152730416c6c2066756e647320676976656e20746f20560641b60608201526001602082015290516000805160206151328339815191529181900360800190a150565b6009546301000000900460ff16151560011480156108025750600954600160281b900460ff1615156001145b156108c857600f546010546040516000926001600160a01b031691908381818185875af1925050503d8060008114610856576040519150601f19603f3d011682016040523d82523d6000602084013e61085b565b606091505b505090508061087c5760405162461bcd60e51b81526004016105be90614bb9565b604080518181526014918101919091527320b63610333ab732399033b4bb32b7103a37902b60611b6060820152600160208201526000805160206151328339815191529060800161047d565b60095460ff16151560011480156108e75750600954610100900460ff16155b15610a3557600e546001600160a01b03166000818152600d60205260408082205490519192918381818185875af1925050503d8060008114610945576040519150601f19603f3d011682016040523d82523d6000602084013e61094a565b606091505b505090508061096b5760405162461bcd60e51b81526004016105be90614bb9565b600f546001600160a01b03166000818152600d60205260408082205490519192918381818185875af1925050503d80600081146109c4576040519150601f19603f3d011682016040523d82523d6000602084013e6109c9565b606091505b50509050806109ea5760405162461bcd60e51b81526004016105be90614bb9565b6040805181815260118183015270119d5b991cc8191a5cdd1c9a589d5d1959607a1b60608201526001602082015290516000805160206151328339815191529181900360800190a150505b565b60065442108015610a92575060095460ff1615156001148015610a67575060095460ff6101009091041615156001145b8015610a7c575060095462010000900460ff16155b8015610a9257506009546301000000900460ff16155b15610f03576000610aa283611ddd565b6001600160e01b03191614610ac95760405162461bcd60e51b81526004016105be90614bfc565b6000610ad482611ddd565b6001600160e01b03191614610b195760405162461bcd60e51b815260206004820152600b60248201526a10d51e15881b1bd8dad95960aa1b60448201526064016105be565b610b2161450d565b610b2961453a565b610b31614567565b610bce858560006001018054610b4690614c21565b80601f0160208091040260200160405190810160405280929190818152602001828054610b7290614c21565b8015610bbf5780601f10610b9457610100808354040283529160200191610bbf565b820191906000526020600020905b815481529060010190602001808311610ba257829003601f168201915b50505050506000800154611e07565b600180549396509194509250610e189187918791610beb90614c21565b80601f0160208091040260200160405190810160405280929190818152602001828054610c1790614c21565b8015610c645780601f10610c3957610100808354040283529160200191610c64565b820191906000526020600020905b815481529060010190602001808311610c4757829003601f168201915b505050505060006003018054610c7990614c21565b80601f0160208091040260200160405190810160405280929190818152602001828054610ca590614c21565b8015610cf25780601f10610cc757610100808354040283529160200191610cf2565b820191906000526020600020905b815481529060010190602001808311610cd557829003601f168201915b505050505060006004018054610d0790614c21565b80601f0160208091040260200160405190810160405280929190818152602001828054610d3390614c21565b8015610d805780601f10610d5557610100808354040283529160200191610d80565b820191906000526020600020905b815481529060010190602001808311610d6357829003601f168201915b505050505060006005018054610d9590614c21565b80601f0160208091040260200160405190810160405280929190818152602001828054610dc190614c21565b8015610e0e5780601f10610de357610100808354040283529160200191610e0e565b820191906000526020600020905b815481529060010190602001808311610df157829003601f168201915b50505050506122e9565b50825151600a10610e855760405162461bcd60e51b815260206004820152603160248201527f50726f76657220646f6573206e6f74206861766520612073756666696369656e6044820152707420616d6f756e74206f6620636f696e7360781b60648201526084016105be565b6009805462ff00001916620100009081179182905560405160008051602061513283398151915292610ef492900460ff16906040808252601b908201527a141c9bdbd9881cdd58d8d95cdcd99d5b1b1e481d995c9a599a5959602a1b6060820152901515602082015260800190565b60405180910390a15050505050565b600954604051600080516020615132833981519152916106c5916201000090910460ff1690614c72565b60006002610f3a8361268a565b604080516d1c1c9bdbd994dd589b5a5d1d195960921b60208201528151600e818303018152602e82018352600160f81b604e8301528251602f818403018152604f8301909352610f8f93929091606f01614cad565b60408051601f1981840301815290829052610fa991614b43565b602060405180830381855afa158015610fc6573d6000803e3d6000fd5b5050506040513d601f19601f82011682018060405250810190610fe99190614b5f565b60065490915042108015611004575060095460ff1615156001145b801561101d575060095460ff6101009091041615156001145b8015611032575060095462010000900460ff16155b801561104857506009546301000000900460ff16155b801561108a575061107881856040516020016110649190614b43565b6040516020818303038152906040526126f8565b600e546001600160a01b039081169116145b80156110b857506110a681846040516020016110649190614b43565b600f546001600160a01b039081169116145b1561113b576009805462ff0000191662010000908117918290556040516000805160206151328339815191529261112e92900460ff16906040808252601d908201527f50726f6f66206f7074696d6973746963616c6c792076657269666965640000006060820152901515602082015260800190565b60405180910390a161116e565b60095460405160008051602061513283398151915291611165916201000090910460ff1690614c72565b60405180910390a15b50505050565b60008a9055885161118c9060019060208c019061457e565b506002805463ffffffff191660e08a901c17905586516111b39060039060208a019061457e565b5085516111c790600490602089019061457e565b5084516111db90600590602088019061457e565b5060068490556007838155600855600080546111f6906127b3565b6002546001906112089060e01b6127de565b60065460039060049060059061121d9061268a565b6007546112299061268a565b604051602001611240989796959493929190614d8a565b60405160208183030381529060405290506112b56002826040516112649190614b43565b602060405180830381855afa158015611281573d6000803e3d6000fd5b5050506040513d601f19601f820116820180604052508101906112a49190614b5f565b846040516020016110649190614b43565b600e546001600160a01b03908116911614801561134357506113316002826040516112e09190614b43565b602060405180830381855afa1580156112fd573d6000803e3d6000fd5b5050506040513d601f19601f820116820180604052508101906113209190614b5f565b836040516020016110649190614b43565b600f546001600160a01b039081169116145b61139a5760405162461bcd60e51b815260206004820152602260248201527f496e76616c6964207369676e617475726573206f766572207365747570206461604482015261746160f01b60648201526084016105be565b50506009805465ffffffffff001916610100179055505050505050505050565b6007546006546113ca9190614712565b42108015611426575060095460ff16151560011480156113f7575060095460ff6101009091041615156001145b801561140c575060095462010000900460ff16155b801561142657506009546301000000900460ff1615156001145b1561180d57600061143682611ddd565b6001600160e01b0319161461145d5760405162461bcd60e51b81526004016105be90614bfc565b600054611469826127fc565b602001511461148a5760405162461bcd60e51b81526004016105be90614e0d565b611492614602565b61149a614567565b6114a2614567565b6114ab846128b1565b600a5483519396509194509250146115505760405162461bcd60e51b815260206004820152605c60248201527f5468652076616c756520696e207468652048544c4320646f6573206e6f74206360448201527f6f72726973706f6e6420746f207468652076616c756520696e2074686520485460648201527b26219037b3102813b9903637b1b5b2b2103a3930b739b0b1ba34b7b760211b608482015260a4016105be565b600b548251146115ee5760405162461bcd60e51b815260206004820152605f60248201527f5468652076616c756520696e20746865207032706b6820646f6573206e6f742060448201527f636f72726973706f6e6420746f207468652076616c756520696e20746865204860648201527f544c43206f662056277320756e6c6f636b6564207472616e73616374696f6e00608482015260a4016105be565b6117a1846000600101805461160290614c21565b80601f016020809104026020016040519081016040528092919081815260200182805461162e90614c21565b801561167b5780601f106116505761010080835404028352916020019161167b565b820191906000526020600020905b81548152906001019060200180831161165e57829003601f168201915b50505050506000600301805461169090614c21565b80601f01602080910402602001604051908101604052809291908181526020018280546116bc90614c21565b80156117095780601f106116de57610100808354040283529160200191611709565b820191906000526020600020905b8154815290600101906020018083116116ec57829003601f168201915b50505050506000600501805461171e90614c21565b80601f016020809104026020016040519081016040528092919081815260200182805461174a90614c21565b80156117975780601f1061176c57610100808354040283529160200191611797565b820191906000526020600020905b81548152906001019060200180831161177a57829003601f168201915b5050505050612ae7565b6009805460ff60201b1916600160201b908117918290556040516000805160206151328339815191529261116592900460ff169060408082526016908201527515985b1a5908111a5cdc1d5d19481c995cdbdb1d995960521b6060820152901515602082015260800190565b600954604080518181526018918101919091527715985b1a5908111a5cdc1d5d19481d5b9c995cdbdb1d995960421b6060820152600160201b90910460ff16151560208201526000805160206151328339815191529060800161047d565b600654421080156118c6575060095460ff161515600114801561189b575060095460ff6101009091041615156001145b80156118b0575060095462010000900460ff16155b80156118c657506009546301000000900460ff16155b15611b1b576007546006546118db9190614712565b6118e483612c88565b63ffffffff161161196b5760405162461bcd60e51b815260206004820152604560248201527f4354785020697320756e6c6f636b6564206f72206974732074696d656c6f636b60448201527f656420697320736d616c6c6572207468616e2f657175616c20746f2054202b206064820152641517dc995b60da1b608482015260a4016105be565b600061197682612c88565b63ffffffff16146119ba5760405162461bcd60e51b815260206004820152600e60248201526d10d51e15881a5cc81b1bd8dad95960921b60448201526064016105be565b6119c261450d565b6119ca61453a565b6119d2614567565b6119e7858560006001018054610b4690614c21565b600180549396509194509250611a049187918791610beb90614c21565b1515600114611a4a5760405162461bcd60e51b8152602060048201526012602482015271496e76616c6964207369676e61747572657360701b60448201526064016105be565b825151600a10611a9c5760405162461bcd60e51b815260206004820152601d60248201527f4e6f2073756666696369656e7420616d6f756e74206f6620636f696e7300000060448201526064016105be565b825151600a55602083015151600b55611ab485612cae565b600c556009805463ff000000191663010000009081179182905560405160008051602061513283398151915292610ef492900460ff16906040808252600e908201526d111a5cdc1d5d19481bdc195b995960921b6060820152901515602082015260800190565b60095460408051818152601691810191909152754661696c656420746f206f70656e206469737075746560501b6060820152630100000090910460ff1615156020820152600080516020615132833981519152906080016106c5565b6000805460018054919291611b8b90614c21565b80601f0160208091040260200160405190810160405280929190818152602001828054611bb790614c21565b8015611c045780601f10611bd957610100808354040283529160200191611c04565b820191906000526020600020905b815481529060010190602001808311611be757829003601f168201915b5050505050908060020160009054906101000a900460e01b90806003018054611c2c90614c21565b80601f0160208091040260200160405190810160405280929190818152602001828054611c5890614c21565b8015611ca55780601f10611c7a57610100808354040283529160200191611ca5565b820191906000526020600020905b815481529060010190602001808311611c8857829003601f168201915b505050505090806004018054611cba90614c21565b80601f0160208091040260200160405190810160405280929190818152602001828054611ce690614c21565b8015611d335780601f10611d0857610100808354040283529160200191611d33565b820191906000526020600020905b815481529060010190602001808311611d1657829003601f168201915b505050505090806005018054611d4890614c21565b80601f0160208091040260200160405190810160405280929190818152602001828054611d7490614c21565b8015611dc15780601f10611d9657610100808354040283529160200191611dc1565b820191906000526020600020905b815481529060010190602001808311611da457829003601f168201915b5050505050908060060154908060070154908060080154905089565b6000611df88260048451611df19190614be5565b6004612ce0565b611e0190614e44565b92915050565b611e0f61450d565b611e1761453a565b611e1f614567565b611e2761450d565b611e2f61453a565b611e37614567565b611e408a6128b1565b9084529084529050611e5189612def565b6020848101919091528085018290526060909101519082015114611edd5760405162461bcd60e51b815260206004820152603f60248201527f50277320636f6d6d69746d656e74207472616e73616374696f6e20646f65732060448201527f6e6f742068617264636f646520562773207265766f636174696f6e206b65790060648201526084016105be565b60208301515182515114611f445760405162461bcd60e51b815260206004820152603a602482015260008051602061511283398151915260448201527910281030b732103634b3b43a3734b73390242a26219037b3102b60311b60648201526084016105be565b60208201515183515114611fab5760405162461bcd60e51b815260206004820152603a60248201526000805160206151128339815191526044820152790205620616e64206c696768746e696e672048544c43206f6620560341b60648201526084016105be565b600080611fb78a612f2d565b8551602090810151604051939550919350600292611fd6929101614e7b565b60408051601f1981840301815290829052611ff091614b43565b602060405180830381855afa15801561200d573d6000803e3d6000fd5b5050506040513d601f19601f820116820180604052508101906120309190614b5f565b600261203b83612f53565b6040516120489190614b43565b602060405180830381855afa158015612065573d6000803e3d6000fd5b5050506040513d601f19601f820116820180604052508101906120889190614b5f565b146121085760405162461bcd60e51b815260206004820152605660248201527f546865207032706b6820696e2050277320756e6c6f636b656420636f6d6d697460448201526000805160206150b0833981519152606482015275706f6e6420746f2056657269666965722773206f6e6560501b608482015260a4016105be565b602080850151810151604051600292612122929101614e7b565b60408051601f198184030181529082905261213c91614b43565b602060405180830381855afa158015612159573d6000803e3d6000fd5b5050506040513d601f19601f8201168201806040525081019061217c9190614b5f565b600261218784612f53565b6040516121949190614b43565b602060405180830381855afa1580156121b1573d6000803e3d6000fd5b5050506040513d601f19601f820116820180604052508101906121d49190614b5f565b146122525760405162461bcd60e51b815260206004820152605460248201527f546865207032706b6820696e2056277320756e6c6f636b656420636f6d6d697460448201526000805160206150b0833981519152606482015273706f6e6420746f2050726f7665722773206f6e6560601b608482015260a4016105be565b8861225c8d6127fc565b602001511461227d5760405162461bcd60e51b81526004016105be90614e0d565b886122878c6127fc565b60200151146122d85760405162461bcd60e51b815260206004820152601e60248201527f4354785620646f6573206e6f74207370656e642066756e64696e67205478000060448201526064016105be565b50929a919950975095505050505050565b60006122f3614629565b6122fc88613008565b602082015261230a87613008565b8152612314614656565b61231f8988886130dd565b8082526020838101518051910151600092600192909161233e90614e90565b60208701516040015161235090614e90565b6040516000815260200160405260405161236d9493929190614eb4565b6020604051602081039080840390855afa15801561238f573d6000803e3d6000fd5b50505060206040510351905060006123d286805190602001206040516020016123ba91815260200190565b604051602081830303815290604052600c6014612ce0565b6123db90614ed2565b60601c90506001600160a01b03821681146124d5578251602085015151600191906124069083614f05565b602080880151015161241790614e90565b60208801516040015161242990614e90565b604051600081526020016040526040516124469493929190614eb4565b6020604051602081039080840390855afa158015612468573d6000803e3d6000fd5b505050602060405103519150806001600160a01b0316826001600160a01b0316146124d55760405162461bcd60e51b815260206004820181905260248201527f496e76616c6964207369676e6174757265206f662056206f766572204354785060448201526064016105be565b6124e08a8a8a6130dd565b602080850182905285518051910151600092600192909161250090614e90565b88516040015161250f90614e90565b6040516000815260200160405260405161252c9493929190614eb4565b6020604051602081039080840390855afa15801561254e573d6000803e3d6000fd5b505050602060405103519050600061257989805190602001206040516020016123ba91815260200190565b61258290614ed2565b60601c90506001600160a01b0382168114612677576020850151865151600191906125ad9083614f05565b8851602001516125bc90614e90565b8951604001516125cb90614e90565b604051600081526020016040526040516125e89493929190614eb4565b6020604051602081039080840390855afa15801561260a573d6000803e3d6000fd5b505050602060405103519150806001600160a01b0316826001600160a01b0316146126775760405162461bcd60e51b815260206004820181905260248201527f496e76616c6964207369676e6174757265206f662050206f766572204354785660448201526064016105be565b5060019c9b505050505050505050505050565b60606001600160ff1b038211156126dd5760405162461bcd60e51b815260206004820152601760248201527656616c75652065786365656473207468652072616e676560481b60448201526064016105be565b60405190506020815281602082015260408101604052919050565b60008151604114156127435760208201516040830151606084015160001a601b81101561272d5761272a601b82614f05565b90505b6127398682858561313d565b9350505050611e01565b81516040141561276b57602082015160408301516127628583836132c1565b92505050611e01565b60405162461bcd60e51b815260206004820152601f60248201527f45434453413a20696e76616c6964207369676e6174757265206c656e6774680060448201526064016105be565b6060816040516020016127c891815260200190565b6040516020818303038152906040529050919050565b6040516001600160e01b0319821660208201526060906024016127c8565b612804614674565b61280c614674565b6128178360046132eb565b5081526128278360256004612ce0565b61283090614e44565b6001600160e01b031916604082015261285d61284f8460056025612ce0565b61285890614e90565b6133ae565b60208201528051600114611e015760405162461bcd60e51b815260206004820152601b60248201527a54782068617320746f6f206d616e7920696e7075747320283e312960281b60448201526064016105be565b6128b9614602565b6128c1614567565b6128c9614567565b6128d1614602565b6128d9614567565b6128e1614567565b6128e9614694565b60048082526128fb908990600061344f565b80835260208301919091526129139089906000613546565b845260408401526060830152608082015260005b6003811015612ad857806129ae5761297a898360600151838151811061294f5761294f614c5c565b60200260200101518460400151848151811061296d5761296d614c5c565b602002602001015161370e565b60408801526060870152602086015260808201518051829081106129a0576129a0614c5c565b602090810291909101015185525b8060011415612a5b57612a276129ff8a846060015184815181106129d4576129d4614c5c565b6020026020010151856040015185815181106129f2576129f2614c5c565b6020026020010151613773565b604051602001612a1191815260200190565b6040516020818303038152906040526000613816565b6001600160601b03191660208401526080820151805182908110612a4d57612a4d614c5c565b602090810291909101015183525b8060021415612ac657612a9c8983606001518381518110612a7e57612a7e614c5c565b6020026020010151846040015184815181106129f2576129f2614c5c565b60208501526080820151805182908110612ab857612ab8614c5c565b602090810291909101015184525b80612ad081614f2a565b915050612927565b50929790965090945092505050565b6000612af285613008565b90506000612b018686866130dd565b9050600060018284600001518560200151612b1b90614e90565b8660400151612b2990614e90565b60405160008152602001604052604051612b469493929190614eb4565b6020604051602081039080840390855afa158015612b68573d6000803e3d6000fd5b5050506020604051035190506000612b9385805190602001206040516020016123ba91815260200190565b612b9c90614ed2565b60601c90506001600160a01b0382168114612c7e5783516001908490612bc29083614f05565b8660200151612bd090614e90565b8760400151612bde90614e90565b60405160008152602001604052604051612bfb9493929190614eb4565b6020604051602081039080840390855afa158015612c1d573d6000803e3d6000fd5b505050602060405103519150806001600160a01b0316826001600160a01b031614612c7e5760405162461bcd60e51b8152602060048201526011602482015270496e76616c6964207369676e617475726560781b60448201526064016105be565b5050505050505050565b6000611e01612ca7612ca28460048651611df19190614be5565b6138a8565b6000613975565b6000612cb8614602565b612cc0614567565b612cc8614567565b612cd1856128b1565b50506060015195945050505050565b606081612cee81601f614712565b1015612d2d5760405162461bcd60e51b815260206004820152600e60248201526d736c6963655f6f766572666c6f7760901b60448201526064016105be565b612d378284614712565b84511015612d7b5760405162461bcd60e51b8152602060048201526011602482015270736c6963655f6f75744f66426f756e647360781b60448201526064016105be565b606082158015612d9a5760405191506000825260208201604052612de4565b6040519150601f8416801560200281840101858101878315602002848b0101015b81831015612dd3578051835260209283019201612dbb565b5050858452601f01601f1916604052505b5090505b9392505050565b612df7614602565b612dff614567565b612e07614602565b612e0f614567565b612e17614694565b6004808252612e29908790600061344f565b8083526020830191909152612e419087906000613546565b845260408401526060830152608082015260005b6002811015612f215780612eb557612e7d878360600151838151811061294f5761294f614c5c565b6040870152606086015260208501526080820151805182908110612ea357612ea3614c5c565b60209081029190910101518452612f0f565b8060011415612f0f57612edb6129ff88846060015184815181106129d4576129d4614c5c565b6001600160601b03191660208401526080820151805182908110612f0157612f01614c5c565b602090810291909101015183525b80612f1981614f2a565b915050612e55565b50919590945092505050565b606080612f3d8360026021612ce0565b612f4a8460256021612ce0565b91509150915091565b60606003600283604051612f679190614b43565b602060405180830381855afa158015612f84573d6000803e3d6000fd5b5050506040513d601f19601f82011682018060405250810190612fa79190614b5f565b604051602001612fb991815260200190565b60408051601f1981840301815290829052612fd391614b43565b602060405180830381855afa158015612ff0573d6000803e3d6000fd5b505060405180516127c8925060601b90602001614e7b565b6130106146c3565b6130186146c3565b60006040518060800160405280604281526020016150d060429139905083602a8151811061304857613048614c5c565b6020910101516001600160f81b031916604760f81b14156130805761307661307185602f6139d2565b6127b3565b60208301526130bf565b83602a8151811061309357613093614c5c565b6020910101516001600160f81b031916602360f91b14156130bf576130b984602f613a44565b60208301525b6130cd6130718560516139d2565b604083015250601b815292915050565b6000806130ed8560006029612ce0565b84613106876072808a516131019190614be5565b612ce0565b8560405160200161311a9493929190614f45565b604051602081830303815290604052905061313481613ac1565b95945050505050565b60006fa2a8918ca85bafe22016d0b997e4df60600160ff1b038211156131b05760405162461bcd60e51b815260206004820152602260248201527f45434453413a20696e76616c6964207369676e6174757265202773272076616c604482015261756560f01b60648201526084016105be565b8360ff16601b14806131c557508360ff16601c145b61321c5760405162461bcd60e51b815260206004820152602260248201527f45434453413a20696e76616c6964207369676e6174757265202776272076616c604482015261756560f01b60648201526084016105be565b6000600186868686604051600081526020016040526040516132419493929190614eb4565b6020604051602081039080840390855afa158015613263573d6000803e3d6000fd5b5050604051601f1901519150506001600160a01b0381166131345760405162461bcd60e51b815260206004820152601860248201527745434453413a20696e76616c6964207369676e617475726560401b60448201526064016105be565b60006001600160ff1b03821660ff83901c601b016132e18682878561313d565b9695505050505050565b600080600084848151811061330257613302614c5c565b016020015160f81c9050613317600185614712565b935060fd8160ff1610156133325760ff1691508290506133a7565b8060ff1660fd141561335f5761334a85856010613b80565b613355856002614712565b92509250506133a7565b8060ff1660fe14156133825761337785856020613b80565b613355856004614712565b8060ff1660ff14156133a55761339a85856040613b80565b613355856008614712565b505b9250929050565b60408051602080825281830190925260009182919060208201818036833701905050905060005b6020811015613445578381602081106133f0576133f0614c5c565b1a60f81b826001613402846020614be5565b61340c9190614be5565b8151811061341c5761341c614c5c565b60200101906001600160f81b031916908160001a9053508061343d81614f2a565b9150506133d5565b50612de881613ee2565b606060008060008061346188886132eb565b9750925085158061347157508286115b1561347e57829150613482565b8591505b6000826001600160401b0381111561349c5761349c61472a565b6040519080825280602002602001820160405280156134c5578160200160208202803683370190505b50905060005b83811015613539576134de60248a614712565b98506134ea8a8a6132eb565b809a5081945050508282828151811061350557613505614c5c565b602090810291909101015261351b836004614712565b613525908a614712565b98508061353181614f2a565b9150506134cb565b5098969750505050505050565b606080606060008060008061355b8a8a6132eb565b9950925087158061356b57508288115b156135785782915061357c565b8791505b6000826001600160401b038111156135965761359661472a565b6040519080825280602002602001820160405280156135bf578160200160208202803683370190505b5090506000836001600160401b038111156135dc576135dc61472a565b604051908082528060200260200182016040528015613605578160200160208202803683370190505b5090506000846001600160401b038111156136225761362261472a565b60405190808252806020026020018201604052801561364b578160200160208202803683370190505b50905060005b858110156136fc576136658e8e6040613b80565b82828151811061367757613677614c5c565b602090810291909101015261368d60088e614712565b9c506136998e8e6132eb565b809e5081965050508c8482815181106136b4576136b4614c5c565b602002602001018181525050848382815181106136d3576136d3614c5c565b60209081029190910101526136e8858e614712565b9c50806136f481614f2a565b915050613651565b509c919b509998509650505050505050565b600080600061371e868686613eff565b156137605761373786613732876003614712565b6139d2565b61374687613732886028614712565b6137558861373289604c614712565b92509250925061376a565b5060009150819050805b93509350939050565b60006137808484846142ac565b156137aa5761379984613794856003614712565b613816565b6001600160601b0319169050612de8565b6137b58484846143d1565b156137c95761379984613794856002614712565b6137d484848461448c565b156137ef576137e884613732856002614712565b9050612de8565b6137fa848484613eff565b1561380e576137e884613732856002614712565b506000612de8565b600080805b6014816001600160a01b0316101561389d57613838816013614f9c565b613843906008614fc4565b6001600160a01b03168585836001600160a01b03166138629190614712565b8151811061387257613872614c5c565b01602001516138899160f89190911c901b83614ff3565b9150806138958161501e565b91505061381b565b5060601b9392505050565b6060600082516001600160401b038111156138c5576138c561472a565b6040519080825280601f01601f1916602001820160405280156138ef576020820181803683370190505b50905060005b835181101561396e5783818151811061391057613910614c5c565b602001015160f81c60f81b82600183875161392b9190614be5565b6139359190614be5565b8151811061394557613945614c5c565b60200101906001600160f81b031916908160001a9053508061396681614f2a565b9150506138f5565b5092915050565b6000613982826004614712565b835110156139c95760405162461bcd60e51b8152602060048201526014602482015273746f55696e7433325f6f75744f66426f756e647360601b60448201526064016105be565b50016004015190565b600080805b6020811015613a3c576139eb81601f614be5565b6139f6906008614b9a565b85613a018684614712565b81518110613a1157613a11614c5c565b0160200151613a289160f89190911c901b83614712565b915080613a3481614f2a565b9150506139d7565b509392505050565b60606000805b601f811015613aaf57613a5e81601e614be5565b613a69906008614b9a565b85613a748684614712565b81518110613a8457613a84614c5c565b0160200151613a9b9160f89190911c901b83614712565b915080613aa781614f2a565b915050613a4a565b50613ab98161268a565b949350505050565b600060028083604051613ad49190614b43565b602060405180830381855afa158015613af1573d6000803e3d6000fd5b5050506040513d601f19601f82011682018060405250810190613b149190614b5f565b604051602001613b2691815260200190565b60408051601f1981840301815290829052613b4091614b43565b602060405180830381855afa158015613b5d573d6000803e3d6000fd5b5050506040513d601f19601f82011682018060405250810190611e019190614b5f565b60008160081415613bac57838381518110613b9d57613b9d614c5c565b016020015160f81c9050612de8565b8160101415613c0d5783613bc1846001614712565b81518110613bd157613bd1614c5c565b0160200151613be59060f81c610100615045565b61ffff16848481518110613bfb57613bfb614c5c565b01602001516137e8919060f81c614712565b8160201415613cf35783613c22846003614712565b81518110613c3257613c32614c5c565b0160200151613c489060f81c6301000000615066565b63ffffffff1684613c5a856002614712565b81518110613c6a57613c6a614c5c565b0160200151613c7f9060f81c62010000615066565b63ffffffff1685613c91866001614712565b81518110613ca157613ca1614c5c565b0160200151613cb59060f81c610100615066565b63ffffffff16868681518110613ccd57613ccd614c5c565b0160200151613cdf919060f81c614712565b613ce99190614712565b6137e89190614712565b8160401415612de85783613d08846007614712565b81518110613d1857613d18614c5c565b0160200151613d2e9060f81c600160381b615089565b6001600160401b031684613d43856006614712565b81518110613d5357613d53614c5c565b0160200151613d699060f81c600160301b615089565b6001600160401b031685613d7e866005614712565b81518110613d8e57613d8e614c5c565b0160200151613da49060f81c600160281b615089565b6001600160401b031686613db9876004614712565b81518110613dc957613dc9614c5c565b0160200151613ddf9060f81c600160201b615089565b6001600160401b031687613df4886003614712565b81518110613e0457613e04614c5c565b0160200151613e1a9060f81c6301000000615089565b6001600160401b031688613e2f896002614712565b81518110613e3f57613e3f614c5c565b0160200151613e549060f81c62010000615089565b6001600160401b031689613e698a6001614712565b81518110613e7957613e79614c5c565b0160200151613e8d9060f81c610100615089565b6001600160401b03168a8a81518110613ea857613ea8614c5c565b0160200151613eba919060f81c614712565b613ec49190614712565b613ece9190614712565b613ed89190614712565b613cdf9190614712565b80516000908290613ef65750600092915050565b50506020015190565b6000816072148015613f3f575083613f18846000614712565b81518110613f2857613f28614c5c565b6020910101516001600160f81b031916603b60f91b145b8015613f79575083613f52846001614712565b81518110613f6257613f62614c5c565b6020910101516001600160f81b031916602160f81b145b8015613fb3575083613f8c846023614712565b81518110613f9c57613f9c614c5c565b6020910101516001600160f81b031916602b60fa1b145b8015613fed575083613fc6846024614712565b81518110613fd657613fd6614c5c565b6020910101516001600160f81b031916606360f81b145b8015614027575083614000846025614712565b8151811061401057614010614c5c565b6020910101516001600160f81b031916607560f81b145b801561406157508361403a846026614712565b8151811061404a5761404a614c5c565b6020910101516001600160f81b031916605560f91b145b801561409b575083614074846027614712565b8151811061408457614084614c5c565b6020910101516001600160f81b031916600160fd1b145b80156140d55750836140ae846048614712565b815181106140be576140be614c5c565b6020910101516001600160f81b031916601160fb1b145b801561410f5750836140e8846049614712565b815181106140f8576140f8614c5c565b6020910101516001600160f81b031916606760f81b145b801561414957508361412284604a614712565b8151811061413257614132614c5c565b6020910101516001600160f81b031916602160f81b145b801561418357508361415c84606c614712565b8151811061416c5761416c614c5c565b6020910101516001600160f81b03191660ad60f81b145b80156141bd57508361419684606d614712565b815181106141a6576141a6614c5c565b6020910101516001600160f81b031916602960f91b145b80156141f75750836141d084606e614712565b815181106141e0576141e0614c5c565b6020910101516001600160f81b031916605960f91b145b801561423157508361420a84606f614712565b8151811061421a5761421a614c5c565b6020910101516001600160f81b031916607560f81b145b801561426b575083614244846070614712565b8151811061425457614254614c5c565b6020910101516001600160f81b031916600d60fb1b145b8015613ab957508361427e846071614712565b8151811061428e5761428e614c5c565b6020910101516001600160f81b031916605160f81b14949350505050565b60008160191480156142e257508383815181106142cb576142cb614c5c565b6020910101516001600160f81b031916603b60f91b145b801561431c5750836142f5846001614712565b8151811061430557614305614c5c565b6020910101516001600160f81b03191660a960f81b145b801561435657508361432f846002614712565b8151811061433f5761433f614c5c565b6020910101516001600160f81b031916600560fa1b145b8015614390575083614369846017614712565b8151811061437957614379614c5c565b6020910101516001600160f81b031916601160fb1b145b8015613ab95750836143a3846018614712565b815181106143b3576143b3614c5c565b6020910101516001600160f81b031916602b60fa1b14949350505050565b60008160171480156144115750836143ea846000614712565b815181106143fa576143fa614c5c565b6020910101516001600160f81b03191660a960f81b145b801561444b575083614424846001614712565b8151811061443457614434614c5c565b6020910101516001600160f81b031916600560fa1b145b8015613ab957508361445e846016614712565b8151811061446e5761446e614c5c565b6020910101516001600160f81b031916608760f81b14949350505050565b60008160221480156144cc5750836144a5846000614712565b815181106144b5576144b5614c5c565b6020910101516001600160f81b031916603560f91b145b8015613ab95750836144df846001614712565b815181106144ef576144ef614c5c565b6020910101516001600160f81b031916600160fd1b14949350505050565b60405180604001604052806002905b614524614602565b81526020019060019003908161451c5790505090565b60405180604001604052806002905b614551614567565b8152602001906001900390816145495790505090565b604080518082019091526000808252602082015290565b82805461458a90614c21565b90600052602060002090601f0160209004810192826145ac57600085556145f2565b82601f106145c557805160ff19168380011785556145f2565b828001600101855582156145f2579182015b828111156145f25782518255916020019190600101906145d7565b506145fe9291506146e7565b5090565b60408051608081018252600080825260208201819052918101829052606081019190915290565b60405180604001604052806002905b6146406146c3565b8152602001906001900390816146385790505090565b60405180604001604052806002906020820280368337509192915050565b604080516060810182526000808252602082018190529181019190915290565b6040518060a0016040528060008152602001606081526020016060815260200160608152602001606081525090565b6040518060600160405280600060ff16815260200160608152602001606081525090565b5b808211156145fe57600081556001016146e8565b634e487b7160e01b600052601160045260246000fd5b60008219821115614725576147256146fc565b500190565b634e487b7160e01b600052604160045260246000fd5b60006001600160401b038084111561475a5761475a61472a565b604051601f8501601f19908116603f011681019082821181831017156147825761478261472a565b8160405280935085815286868601111561479b57600080fd5b858560208301376000602087830101525050509392505050565b6000602082840312156147c757600080fd5b81356001600160401b038111156147dd57600080fd5b8201601f810184136147ee57600080fd5b613ab984823560208401614740565b600082601f83011261480e57600080fd5b612de883833560208501614740565b6000806040838503121561483057600080fd5b82356001600160401b038082111561484757600080fd5b614853868387016147fd565b9350602085013591508082111561486957600080fd5b50614876858286016147fd565b9150509250929050565b60008060006060848603121561489557600080fd5b83356001600160401b03808211156148ac57600080fd5b6148b8878388016147fd565b945060208601359150808211156148ce57600080fd5b506148db868287016147fd565b925050604084013590509250925092565b80356001600160e01b03198116811461490457600080fd5b919050565b6000806000806000806000806000806101408b8d03121561492957600080fd5b8a35995060208b01356001600160401b038082111561494757600080fd5b6149538e838f016147fd565b9a5061496160408e016148ec565b995060608d013591508082111561497757600080fd5b6149838e838f016147fd565b985060808d013591508082111561499957600080fd5b6149a58e838f016147fd565b975060a08d01359150808211156149bb57600080fd5b6149c78e838f016147fd565b965060c08d0135955060e08d013594506101008d01359150808211156149ec57600080fd5b6149f88e838f016147fd565b93506101208d0135915080821115614a0f57600080fd5b50614a1c8d828e016147fd565b9150509295989b9194979a5092959850565b600060208284031215614a4057600080fd5b81356001600160401b03811115614a5657600080fd5b613ab9848285016147fd565b60005b83811015614a7d578181015183820152602001614a65565b8381111561116e5750506000910152565b60008151808452614aa6816020860160208601614a62565b601f01601f19169290920160200192915050565b60006101208b8352806020840152614ad48184018c614a8e565b6001600160e01b03198b16604085015283810360608501529050614af8818a614a8e565b90508281036080840152614b0c8189614a8e565b905082810360a0840152614b208188614a8e565b60c0840196909652505060e0810192909252610100909101529695505050505050565b60008251614b55818460208701614a62565b9190910192915050565b600060208284031215614b7157600080fd5b5051919050565b600082614b9557634e487b7160e01b600052601260045260246000fd5b500490565b6000816000190483118215151615614bb457614bb46146fc565b500290565b60208082526012908201527108cc2d2d8cac840e8de40e6cadcc8408aa8960731b604082015260600190565b600082821015614bf757614bf76146fc565b500390565b6020808252600b908201526a10d51e14081b1bd8dad95960aa1b604082015260600190565b600181811c90821680614c3557607f821691505b60208210811415614c5657634e487b7160e01b600052602260045260246000fd5b50919050565b634e487b7160e01b600052603260045260246000fd5b604080825260199082015278141c9bdbd9881d995c9a599a58d85d1a5bdb8819985a5b1959603a1b6060820152901515602082015260800190565b60008451614cbf818460208901614a62565b845190830190614cd3818360208901614a62565b8451910190614ce6818360208801614a62565b0195945050505050565b8054600090600181811c9080831680614d0a57607f831692505b6020808410821415614d2c57634e487b7160e01b600052602260045260246000fd5b818015614d405760018114614d5157614d7e565b60ff19861689528489019650614d7e565b60008881526020902060005b86811015614d765781548b820152908501908301614d5d565b505084890196505b50505050505092915050565b60008951614d9c818460208e01614a62565b614da88184018b614cf0565b90508851614dba818360208d01614a62565b614dd8614dd2614dcc8385018c614cf0565b8a614cf0565b88614cf0565b9150508451614deb818360208901614a62565b8451910190614dfe818360208801614a62565b019a9950505050505050505050565b6020808252601e908201527f4354785020646f6573206e6f74207370656e642066756e64696e672054780000604082015260600190565b805160208201516001600160e01b03198082169291906004831015614e735780818460040360031b1b83161693505b505050919050565b6001600160601b031991909116815260140190565b80516020808301519190811015614c565760001960209190910360031b1b16919050565b93845260ff9290921660208401526040830152606082015260800190565b805160208201516001600160601b03198082169291906014831015614e735760149290920360031b82901b161692915050565b600060ff821660ff84168060ff03821115614f2257614f226146fc565b019392505050565b6000600019821415614f3e57614f3e6146fc565b5060010190565b60008551614f57818460208a01614a62565b855190830190614f6b818360208a01614a62565b8551910190614f7e818360208901614a62565b8451910190614f91818360208801614a62565b019695505050505050565b60006001600160a01b0383811690831681811015614fbc57614fbc6146fc565b039392505050565b60006001600160a01b0382811684821681151582840482111615614fea57614fea6146fc565b02949350505050565b60006001600160a01b03828116848216808303821115615015576150156146fc565b01949350505050565b60006001600160a01b038281168082141561503b5761503b6146fc565b6001019392505050565b600061ffff80831681851681830481118215151615614fea57614fea6146fc565b600063ffffffff80831681851681830481118215151615614fea57614fea6146fc565b60006001600160401b0382811684821681151582840482111615614fea57614fea6146fc56fe6d656e74207472616e73616374696f6e20646f6573206e6f7420636f72726573307866666666666666666666666666666666666666666666666666666666666666656261616564636536616634386130336262666432356538636430333634313431416d6f756e74206d69736d61746368206265747765656e207032706b68206f667cb76fce4caeb1fe1b0dd56de53b408af770b76cf5e9c88a1e2568a7d1e9889fa2646970667358221220ef2f4299f73b1300e65f9a2cb2a3fa46e3c4eed86821a0554f6c25221f8f47b764736f6c63430008090033",
  "linkReferences": {},
  "deployedLinkReferences": {}
}