{
  "_format": "hh-sol-artifact-1",
  "contractName": "ParseBitcoinRawTx",
  "sourceName": "contracts/ParseBitcoinRawTx.sol",
  "abi": [
    {
      "inputs": [
        {
          "internalType": "bytes",
          "name": "_fundingScript",
          "type": "bytes"
        }
      ],
      "name": "extractCompressedPK",
      "outputs": [
        {
          "internalType": "bytes",
          "name": "",
          "type": "bytes"
        },
        {
          "internalType": "bytes",
          "name": "",
          "type": "bytes"
        }
      ],
      "stateMutability": "view",
      "type": "function"
    },
    {
      "inputs": [
        {
          "internalType": "bytes",
          "name": "_txBytes",
          "type": "bytes"
        }
      ],
      "name": "getInputsData",
      "outputs": [
        {
          "components": [
            {
              "internalType": "uint256",
              "name": "number_of_inputs",
              "type": "uint256"
            },
            {
              "internalType": "bytes32",
              "name": "txid",
              "type": "bytes32"
            },
            {
              "internalType": "bytes4",
              "name": "inputIndex",
              "type": "bytes4"
            }
          ],
          "internalType": "struct ParseBitcoinRawTx.Input",
          "name": "",
          "type": "tuple"
        }
      ],
      "stateMutability": "view",
      "type": "function"
    },
    {
      "inputs": [
        {
          "internalType": "bytes",
          "name": "_txBytes",
          "type": "bytes"
        }
      ],
      "name": "getOutputsDataLN",
      "outputs": [
        {
          "components": [
            {
              "internalType": "uint256",
              "name": "value",
              "type": "uint256"
            },
            {
              "internalType": "bytes32",
              "name": "pk1",
              "type": "bytes32"
            },
            {
              "internalType": "bytes32",
              "name": "pk2",
              "type": "bytes32"
            },
            {
              "internalType": "bytes32",
              "name": "rev_secret",
              "type": "bytes32"
            }
          ],
          "internalType": "struct ParseBitcoinRawTx.LightningHTLCData",
          "name": "",
          "type": "tuple"
        },
        {
          "components": [
            {
              "internalType": "uint256",
              "name": "value",
              "type": "uint256"
            },
            {
              "internalType": "bytes20",
              "name": "pkhash",
              "type": "bytes20"
            }
          ],
          "internalType": "struct ParseBitcoinRawTx.P2PKHData",
          "name": "",
          "type": "tuple"
        }
      ],
      "stateMutability": "view",
      "type": "function"
    },
    {
      "inputs": [
        {
          "internalType": "bytes",
          "name": "_txBytes",
          "type": "bytes"
        }
      ],
      "name": "getOutputsDataLNB",
      "outputs": [
        {
          "components": [
            {
              "internalType": "uint256",
              "name": "value",
              "type": "uint256"
            },
            {
              "internalType": "bytes32",
              "name": "pk1",
              "type": "bytes32"
            },
            {
              "internalType": "bytes32",
              "name": "pk2",
              "type": "bytes32"
            },
            {
              "internalType": "bytes32",
              "name": "rev_secret",
              "type": "bytes32"
            }
          ],
          "internalType": "struct ParseBitcoinRawTx.LightningHTLCData",
          "name": "",
          "type": "tuple"
        },
        {
          "components": [
            {
              "internalType": "uint256",
              "name": "value",
              "type": "uint256"
            },
            {
              "internalType": "bytes20",
              "name": "pkhash",
              "type": "bytes20"
            }
          ],
          "internalType": "struct ParseBitcoinRawTx.P2PKHData",
          "name": "",
          "type": "tuple"
        },
        {
          "components": [
            {
              "internalType": "uint256",
              "name": "value",
              "type": "uint256"
            },
            {
              "internalType": "bytes32",
              "name": "data",
              "type": "bytes32"
            }
          ],
          "internalType": "struct ParseBitcoinRawTx.OpReturnData",
          "name": "",
          "type": "tuple"
        }
      ],
      "stateMutability": "view",
      "type": "function"
    },
    {
      "inputs": [
        {
          "internalType": "bytes",
          "name": "_txBytes",
          "type": "bytes"
        }
      ],
      "name": "getSignature",
      "outputs": [
        {
          "components": [
            {
              "internalType": "uint8",
              "name": "v",
              "type": "uint8"
            },
            {
              "internalType": "bytes",
              "name": "r",
              "type": "bytes"
            },
            {
              "internalType": "bytes",
              "name": "s",
              "type": "bytes"
            }
          ],
          "internalType": "struct ParseBitcoinRawTx.Signature",
          "name": "",
          "type": "tuple"
        }
      ],
      "stateMutability": "view",
      "type": "function"
    },
    {
      "inputs": [
        {
          "internalType": "bytes",
          "name": "_txBytes",
          "type": "bytes"
        }
      ],
      "name": "getSignatures",
      "outputs": [
        {
          "components": [
            {
              "internalType": "uint8",
              "name": "v",
              "type": "uint8"
            },
            {
              "internalType": "bytes",
              "name": "r",
              "type": "bytes"
            },
            {
              "internalType": "bytes",
              "name": "s",
              "type": "bytes"
            }
          ],
          "internalType": "struct ParseBitcoinRawTx.Signature",
          "name": "",
          "type": "tuple"
        },
        {
          "components": [
            {
              "internalType": "uint8",
              "name": "v",
              "type": "uint8"
            },
            {
              "internalType": "bytes",
              "name": "r",
              "type": "bytes"
            },
            {
              "internalType": "bytes",
              "name": "s",
              "type": "bytes"
            }
          ],
          "internalType": "struct ParseBitcoinRawTx.Signature",
          "name": "",
          "type": "tuple"
        }
      ],
      "stateMutability": "view",
      "type": "function"
    },
    {
      "inputs": [
        {
          "internalType": "bytes",
          "name": "_txBytes",
          "type": "bytes"
        }
      ],
      "name": "getTimelock",
      "outputs": [
        {
          "internalType": "bytes4",
          "name": "",
          "type": "bytes4"
        }
      ],
      "stateMutability": "view",
      "type": "function"
    },
    {
      "inputs": [
        {
          "internalType": "bytes",
          "name": "_txBytes",
          "type": "bytes"
        },
        {
          "internalType": "bytes",
          "name": "fundingTxLockingScript",
          "type": "bytes"
        },
        {
          "internalType": "bytes",
          "name": "sighash",
          "type": "bytes"
        }
      ],
      "name": "getTxDigest",
      "outputs": [
        {
          "internalType": "bytes32",
          "name": "",
          "type": "bytes32"
        }
      ],
      "stateMutability": "view",
      "type": "function"
    },
    {
      "inputs": [
        {
          "internalType": "uint256",
          "name": "digest",
          "type": "uint256"
        },
        {
          "internalType": "uint8",
          "name": "v",
          "type": "uint8"
        },
        {
          "internalType": "uint256",
          "name": "r",
          "type": "uint256"
        },
        {
          "internalType": "uint256",
          "name": "s",
          "type": "uint256"
        }
      ],
      "name": "verifyBTCSignature",
      "outputs": [
        {
          "internalType": "bytes",
          "name": "",
          "type": "bytes"
        }
      ],
      "stateMutability": "view",
      "type": "function"
    }
  ],
  "bytecode": "0x608060405234801561001057600080fd5b50612c01806100206000396000f3fe608060405234801561001057600080fd5b50600436106100835760003560e01c80631ed113ae1461008857806336946480146100b15780634f500ea9146100dd5780635933bf611461011c578063606c3cf11461013c5780636b45b4e31461015d57806393e309e11461017e5780639bfc9002146101a0578063d74f6ae2146101c1575b600080fd5b61009b61009636600461263b565b6101e2565b6040516100a8919061270f565b60405180910390f35b6100c46100bf36600461263b565b6102c4565b6040516001600160e01b031990911681526020016100a8565b6100f06100eb36600461263b565b6102e8565b604080518251815260208084015190820152918101516001600160e01b031916908201526060016100a8565b61012f61012a366004612722565b6103a2565b6040516100a89190612765565b61014f61014a36600461263b565b6103eb565b6040516100a8929190612778565b61017061016b36600461263b565b610411565b6040516100a892919061279d565b61019161018c36600461263b565b610577565b6040516100a893929190612801565b6101b36101ae366004612836565b6107ad565b6040519081526020016100a8565b6101d46101cf36600461263b565b61080f565b6040516100a89291906128bd565b6101ea6124ca565b6101f26124ca565b82602a81518110610205576102056128d8565b6020910101516001600160f81b031916604760f81b141561023d5761023361022e84602f61094d565b6109bf565b602082015261027c565b82602a81518110610250576102506128d8565b6020910101516001600160f81b031916602360f91b141561027c5761027683602f6109ea565b60208201525b61028a61022e84605161094d565b604082015260208101516002906102a2906000610a67565b6102ac9190612904565b6102b957601c81526102be565b601b81525b92915050565b60006102df82600484516102d8919061292e565b6004610ac5565b6102be90612945565b6102f06124ee565b6102f86124ee565b610303836004610bd2565b5081526103138360256004610ac5565b61031c90612945565b6001600160e01b031916604082015261034961033b8460056025610ac5565b6103449061297c565b610c95565b602082015280516001146102be5760405162461bcd60e51b815260206004820152601b60248201527a54782068617320746f6f206d616e7920696e7075747320283e312960281b60448201526064015b60405180910390fd5b60606000806103bd876103b6601b896129a3565b8787610d36565b6040805160208101939093528281019190915280518083038201815260609092019052979650505050505050565b6060806103fb8360026021610ac5565b6104088460256021610ac5565b91509150915091565b6104196124ca565b6104216124ca565b6104296124ca565b6104316124ca565b601b815261044361022e86605161094d565b604082015284518590602a90811061045d5761045d6128d8565b6020910101516001600160f81b031916604760f81b14156104905761048661022e86602f61094d565b60208201526104cf565b84602a815181106104a3576104a36128d8565b6020910101516001600160f81b031916602360f91b14156104cf576104c985602f6109ea565b60208201525b601b82526104e161022e86609861094d565b60408301528451859060729081106104fb576104fb6128d8565b6020910101516001600160f81b031916604760f81b141561052e5761052461022e86607761094d565b602083015261056d565b84607281518110610541576105416128d8565b6020910101516001600160f81b031916602360f91b141561056d576105678560776109ea565b60208301525b9094909350915050565b61057f61250e565b610587612535565b61058f612535565b61059761250e565b61059f612535565b6105a7612535565b6105af61254c565b60048082526105c19089906000610f67565b80835260208301919091526105d9908990600061105e565b845260408401526060830152608082015260005b600381101561079e5780610674576106408983606001518381518110610615576106156128d8565b602002602001015184604001518481518110610633576106336128d8565b6020026020010151611226565b6040880152606087015260208601526080820151805182908110610666576106666128d8565b602090810291909101015185525b8060011415610721576106ed6106c58a8460600151848151811061069a5761069a6128d8565b6020026020010151856040015185815181106106b8576106b86128d8565b602002602001015161128b565b6040516020016106d791815260200190565b604051602081830303815290604052600061132e565b6001600160601b03191660208401526080820151805182908110610713576107136128d8565b602090810291909101015183525b806002141561078c576107628983606001518381518110610744576107446128d8565b6020026020010151846040015184815181106106b8576106b86128d8565b6020850152608082015180518290811061077e5761077e6128d8565b602090810291909101015184525b80610796816129c6565b9150506105ed565b50929790965090945092505050565b6000806107bd8560006029610ac5565b846107d6876072808a516107d1919061292e565b610ac5565b856040516020016107ea94939291906129e1565b6040516020818303038152906040529050610804816113c0565b9150505b9392505050565b61081761250e565b61081f612535565b61082761250e565b61082f612535565b61083761254c565b60048082526108499087906000610f67565b8083526020830191909152610861908790600061105e565b845260408401526060830152608082015260005b600281101561094157806108d55761089d8783606001518381518110610615576106156128d8565b60408701526060860152602085015260808201518051829081106108c3576108c36128d8565b6020908102919091010151845261092f565b806001141561092f576108fb6106c5888460600151848151811061069a5761069a6128d8565b6001600160601b03191660208401526080820151805182908110610921576109216128d8565b602090810291909101015183525b80610939816129c6565b915050610875565b50919590945092505050565b600080805b60208110156109b75761096681601f61292e565b610971906008612a38565b8561097c8684612a57565b8151811061098c5761098c6128d8565b01602001516109a39160f89190911c901b83612a57565b9150806109af816129c6565b915050610952565b509392505050565b6060816040516020016109d491815260200190565b6040516020818303038152906040529050919050565b60606000805b601f811015610a5557610a0481601e61292e565b610a0f906008612a38565b85610a1a8684612a57565b81518110610a2a57610a2a6128d8565b0160200151610a419160f89190911c901b83612a57565b915080610a4d816129c6565b9150506109f0565b50610a5f8161147f565b949350505050565b6000610a74826020612a57565b83511015610abc5760405162461bcd60e51b8152602060048201526015602482015274746f55696e743235365f6f75744f66426f756e647360581b6044820152606401610399565b50016020015190565b606081610ad381601f612a57565b1015610b125760405162461bcd60e51b815260206004820152600e60248201526d736c6963655f6f766572666c6f7760901b6044820152606401610399565b610b1c8284612a57565b84511015610b605760405162461bcd60e51b8152602060048201526011602482015270736c6963655f6f75744f66426f756e647360781b6044820152606401610399565b606082158015610b7f5760405191506000825260208201604052610bc9565b6040519150601f8416801560200281840101858101878315602002848b0101015b81831015610bb8578051835260209283019201610ba0565b5050858452601f01601f1916604052505b50949350505050565b6000806000848481518110610be957610be96128d8565b016020015160f81c9050610bfe600185612a57565b935060fd8160ff161015610c195760ff169150829050610c8e565b8060ff1660fd1415610c4657610c31858560106114ed565b610c3c856002612a57565b9250925050610c8e565b8060ff1660fe1415610c6957610c5e858560206114ed565b610c3c856004612a57565b8060ff1660ff1415610c8c57610c81858560406114ed565b610c3c856008612a57565b505b9250929050565b60408051602080825281830190925260009182919060208201818036833701905050905060005b6020811015610d2c57838160208110610cd757610cd76128d8565b1a60f81b826001610ce984602061292e565b610cf3919061292e565b81518110610d0357610d036128d8565b60200101906001600160f81b031916908160001a90535080610d24816129c6565b915050610cbc565b506108088161184f565b600080806401000003d019610d58607f600189901c166401000003d019612a38565b860890506401000003d019811180610d81575070014551231950b75fc4402da1732fc9bebe1984115b80610d9d575070014551231950b75fc4402da1732fc9bebe1985115b80610da6575083155b80610daf575084155b80610dbd575060018660ff16115b15610dcf576000809250925050610f5e565b6000610ded8670014551231950b75fc4402da1732fc9bebe1961186c565b905060006401000003d0198060076401000003d01960008709086401000003d019808687098609089050610e3d816004610e2e6401000003d0196001612a57565b610e389190612a6f565b611938565b90506000610e4e60ff8a1683612a57565b610e59906002612a57565b60011615610e7657610e71826401000003d01961292e565b610e78565b815b905060008080610efb70014551231950b75fc4402da1732fc9bebe19610eb08f70014551231950b75fc4402da1732fc9bebe1961292e565b88097f79be667ef9dcbbac55a06295ce870b07029bfcdb2dce28d959f2815b16f817987f483ada7726a3c4655da4fbfc0e1108a8fd17b448a68554199c47d08ffb10d4b860016119e0565b9250925092506000806000610f3570014551231950b75fc4402da1732fc9bebe1980610f2957610f296128ee565b8e8b098b8960016119e0565b925092509250600080610f4c888888888888611a59565b909e509c505050505050505050505050505b94509492505050565b6060600080600080610f798888610bd2565b97509250851580610f8957508286115b15610f9657829150610f9a565b8591505b6000826001600160401b03811115610fb457610fb4612599565b604051908082528060200260200182016040528015610fdd578160200160208202803683370190505b50905060005b8381101561105157610ff660248a612a57565b98506110028a8a610bd2565b809a5081945050508282828151811061101d5761101d6128d8565b6020908102919091010152611033836004612a57565b61103d908a612a57565b985080611049816129c6565b915050610fe3565b5098969750505050505050565b60608060606000806000806110738a8a610bd2565b9950925087158061108357508288115b1561109057829150611094565b8791505b6000826001600160401b038111156110ae576110ae612599565b6040519080825280602002602001820160405280156110d7578160200160208202803683370190505b5090506000836001600160401b038111156110f4576110f4612599565b60405190808252806020026020018201604052801561111d578160200160208202803683370190505b5090506000846001600160401b0381111561113a5761113a612599565b604051908082528060200260200182016040528015611163578160200160208202803683370190505b50905060005b858110156112145761117d8e8e60406114ed565b82828151811061118f5761118f6128d8565b60209081029190910101526111a560088e612a57565b9c506111b18e8e610bd2565b809e5081965050508c8482815181106111cc576111cc6128d8565b602002602001018181525050848382815181106111eb576111eb6128d8565b6020908102919091010152611200858e612a57565b9c508061120c816129c6565b915050611169565b509c919b509998509650505050505050565b6000806000611236868686611ad1565b156112785761124f8661124a876003612a57565b61094d565b61125e8761124a886028612a57565b61126d8861124a89604c612a57565b925092509250611282565b5060009150819050805b93509350939050565b6000611298848484611e7e565b156112c2576112b1846112ac856003612a57565b61132e565b6001600160601b0319169050610808565b6112cd848484611fa3565b156112e1576112b1846112ac856002612a57565b6112ec84848461205e565b15611307576113008461124a856002612a57565b9050610808565b611312848484611ad1565b15611326576113008461124a856002612a57565b506000610808565b600080805b6014816001600160a01b031610156113b557611350816013612a83565b61135b906008612aab565b6001600160a01b03168585836001600160a01b031661137a9190612a57565b8151811061138a5761138a6128d8565b01602001516113a19160f89190911c901b83612ada565b9150806113ad81612b05565b915050611333565b5060601b9392505050565b6000600280836040516113d39190612b2c565b602060405180830381855afa1580156113f0573d6000803e3d6000fd5b5050506040513d601f19601f820116820180604052508101906114139190612b48565b60405160200161142591815260200190565b60408051601f198184030181529082905261143f91612b2c565b602060405180830381855afa15801561145c573d6000803e3d6000fd5b5050506040513d601f19601f820116820180604052508101906102be9190612b48565b60606001600160ff1b038211156114d25760405162461bcd60e51b815260206004820152601760248201527656616c75652065786365656473207468652072616e676560481b6044820152606401610399565b60405190506020815281602082015260408101604052919050565b600081600814156115195783838151811061150a5761150a6128d8565b016020015160f81c9050610808565b816010141561157a578361152e846001612a57565b8151811061153e5761153e6128d8565b01602001516115529060f81c610100612b61565b61ffff16848481518110611568576115686128d8565b0160200151611300919060f81c612a57565b8160201415611660578361158f846003612a57565b8151811061159f5761159f6128d8565b01602001516115b59060f81c6301000000612b82565b63ffffffff16846115c7856002612a57565b815181106115d7576115d76128d8565b01602001516115ec9060f81c62010000612b82565b63ffffffff16856115fe866001612a57565b8151811061160e5761160e6128d8565b01602001516116229060f81c610100612b82565b63ffffffff1686868151811061163a5761163a6128d8565b016020015161164c919060f81c612a57565b6116569190612a57565b6113009190612a57565b81604014156108085783611675846007612a57565b81518110611685576116856128d8565b016020015161169b9060f81c600160381b612ba5565b6001600160401b0316846116b0856006612a57565b815181106116c0576116c06128d8565b01602001516116d69060f81c600160301b612ba5565b6001600160401b0316856116eb866005612a57565b815181106116fb576116fb6128d8565b01602001516117119060f81c600160281b612ba5565b6001600160401b031686611726876004612a57565b81518110611736576117366128d8565b016020015161174c9060f81c600160201b612ba5565b6001600160401b031687611761886003612a57565b81518110611771576117716128d8565b01602001516117879060f81c6301000000612ba5565b6001600160401b03168861179c896002612a57565b815181106117ac576117ac6128d8565b01602001516117c19060f81c62010000612ba5565b6001600160401b0316896117d68a6001612a57565b815181106117e6576117e66128d8565b01602001516117fa9060f81c610100612ba5565b6001600160401b03168a8a81518110611815576118156128d8565b0160200151611827919060f81c612a57565b6118319190612a57565b61183b9190612a57565b6118459190612a57565b61164c9190612a57565b805160009082906118635750600092915050565b50506020015190565b6000821580159061187d5750818314155b801561188857508115155b6118c55760405162461bcd60e51b815260206004820152600e60248201526d24b73b30b634b210373ab6b132b960911b6044820152606401610399565b6000600183825b861561192d576118dc8783612a6f565b90508286806118ed576118ed6128ee565b87806118fb576118fb6128ee565b858409611908908961292e565b860890945092508661191a8183612a38565b611924908461292e565b975091506118cc565b509195945050505050565b600082611947575060006102be565b81611954575060016102be565b6001600160ff1b5b80156109b7576401000003d0198185161515860a6401000003d0198485090991506401000003d0196002820485161515860a6401000003d0198485090991506401000003d0196004820485161515860a6401000003d0198485090991506401000003d0196008820485161515860a6401000003d0198485090991506010900461195c565b60008080866119f6575084915083905082611a4f565b8660008060015b8315611a46576001841615611a2257611a1a8383838d8d8d6120df565b919450925090505b611a2d600285612a6f565b9350611a3a8a8a8a612374565b919b50995097506119fd565b91955093509150505b9450945094915050565b6000806000806000878b1415611a9d576401000003d019878b08611a865760008094509450505050611ac6565b611a918b8b8b612374565b91945092509050611ab3565b611aab8b8b8b8b8b8b6120df565b919450925090505b611abe838383612478565b945094505050505b965096945050505050565b6000816072148015611b11575083611aea846000612a57565b81518110611afa57611afa6128d8565b6020910101516001600160f81b031916603b60f91b145b8015611b4b575083611b24846001612a57565b81518110611b3457611b346128d8565b6020910101516001600160f81b031916602160f81b145b8015611b85575083611b5e846023612a57565b81518110611b6e57611b6e6128d8565b6020910101516001600160f81b031916602b60fa1b145b8015611bbf575083611b98846024612a57565b81518110611ba857611ba86128d8565b6020910101516001600160f81b031916606360f81b145b8015611bf9575083611bd2846025612a57565b81518110611be257611be26128d8565b6020910101516001600160f81b031916607560f81b145b8015611c33575083611c0c846026612a57565b81518110611c1c57611c1c6128d8565b6020910101516001600160f81b031916605560f91b145b8015611c6d575083611c46846027612a57565b81518110611c5657611c566128d8565b6020910101516001600160f81b031916600160fd1b145b8015611ca7575083611c80846048612a57565b81518110611c9057611c906128d8565b6020910101516001600160f81b031916601160fb1b145b8015611ce1575083611cba846049612a57565b81518110611cca57611cca6128d8565b6020910101516001600160f81b031916606760f81b145b8015611d1b575083611cf484604a612a57565b81518110611d0457611d046128d8565b6020910101516001600160f81b031916602160f81b145b8015611d55575083611d2e84606c612a57565b81518110611d3e57611d3e6128d8565b6020910101516001600160f81b03191660ad60f81b145b8015611d8f575083611d6884606d612a57565b81518110611d7857611d786128d8565b6020910101516001600160f81b031916602960f91b145b8015611dc9575083611da284606e612a57565b81518110611db257611db26128d8565b6020910101516001600160f81b031916605960f91b145b8015611e03575083611ddc84606f612a57565b81518110611dec57611dec6128d8565b6020910101516001600160f81b031916607560f81b145b8015611e3d575083611e16846070612a57565b81518110611e2657611e266128d8565b6020910101516001600160f81b031916600d60fb1b145b8015610a5f575083611e50846071612a57565b81518110611e6057611e606128d8565b6020910101516001600160f81b031916605160f81b14949350505050565b6000816019148015611eb45750838381518110611e9d57611e9d6128d8565b6020910101516001600160f81b031916603b60f91b145b8015611eee575083611ec7846001612a57565b81518110611ed757611ed76128d8565b6020910101516001600160f81b03191660a960f81b145b8015611f28575083611f01846002612a57565b81518110611f1157611f116128d8565b6020910101516001600160f81b031916600560fa1b145b8015611f62575083611f3b846017612a57565b81518110611f4b57611f4b6128d8565b6020910101516001600160f81b031916601160fb1b145b8015610a5f575083611f75846018612a57565b81518110611f8557611f856128d8565b6020910101516001600160f81b031916602b60fa1b14949350505050565b6000816017148015611fe3575083611fbc846000612a57565b81518110611fcc57611fcc6128d8565b6020910101516001600160f81b03191660a960f81b145b801561201d575083611ff6846001612a57565b81518110612006576120066128d8565b6020910101516001600160f81b031916600560fa1b145b8015610a5f575083612030846016612a57565b81518110612040576120406128d8565b6020910101516001600160f81b031916608760f81b14949350505050565b600081602214801561209e575083612077846000612a57565b81518110612087576120876128d8565b6020910101516001600160f81b031916603560f91b145b8015610a5f5750836120b1846001612a57565b815181106120c1576120c16128d8565b6020910101516001600160f81b031916600160fd1b14949350505050565b60008080881580156120ef575087155b15612101575084915083905082612368565b8515801561210d575084155b1561211f575087915086905085612368565b61212761257b565b6401000003d0198889098082526401000003d01990890960208201526401000003d019858009604082018190526401000003d0199086096060820152604080516080810182529082015181906401000003d019908d0981526020016401000003d01983600360200201518c0981526020016401000003d01983600060200201518a0981526020016401000003d019836001602002015189099052604081015181519192501415806121e057506060810151602082015114155b61222c5760405162461bcd60e51b815260206004820152601e60248201527f557365206a6163446f75626c652066756e6374696f6e20696e737465616400006044820152606401610399565b61223461257b565b81516401000003d01990612248908261292e565b604084015108815260208201516401000003d01990612267908261292e565b606084015108602082015280516401000003d0199080096040820181905281516401000003d0199109606082018190526000906401000003d019906122ac908261292e565b60208401516401000003d01990800908604083015184519192506401000003d0199182918291096002096122e6906401000003d01961292e565b8208905060006401000003d01980612304846401000003d01961292e565b604086015187516401000003d0199190090860208501510990506401000003d019808460036020020151866001602002015109612347906401000003d01961292e565b8208905060006401000003d019808a8e098551099297509095509093505050505b96509650969350505050565b600080808361238a575084915083905082611282565b60006401000003d019878809905060006401000003d019878809905060006401000003d019878809905060006401000003d01980848c09600409905060006401000003d019806401000003d0198586096000096401000003d019876003090890506401000003d01980838408612406906401000003d01961292e565b6401000003d0198384090894506401000003d019806401000003d019868709600809612438906401000003d01961292e565b6401000003d01980612450896401000003d01961292e565b860884090893506401000003d019808a8c09600209949b939a50939850919650505050505050565b600080600061248d846401000003d01961186c565b905060006401000003d019828309905060006401000003d019828909905060006401000003d0198084860989099199919850909650505050505050565b6040518060600160405280600060ff16815260200160608152602001606081525090565b604080516060810182526000808252602082018190529181019190915290565b60408051608081018252600080825260208201819052918101829052606081019190915290565b604080518082019091526000808252602082015290565b6040518060a0016040528060008152602001606081526020016060815260200160608152602001606081525090565b60405180608001604052806004906020820280368337509192915050565b634e487b7160e01b600052604160045260246000fd5b600082601f8301126125c057600080fd5b81356001600160401b03808211156125da576125da612599565b604051601f8301601f19908116603f0116810190828211818310171561260257612602612599565b8160405283815286602085880101111561261b57600080fd5b836020870160208301376000602085830101528094505050505092915050565b60006020828403121561264d57600080fd5b81356001600160401b0381111561266357600080fd5b610a5f848285016125af565b60005b8381101561268a578181015183820152602001612672565b83811115612699576000848401525b50505050565b600081518084526126b781602086016020860161266f565b601f01601f19169290920160200192915050565b60ff815116825260006020820151606060208501526126ed606085018261269f565b905060408301518482036040860152612706828261269f565b95945050505050565b60208152600061080860208301846126cb565b6000806000806080858703121561273857600080fd5b84359350602085013560ff8116811461275057600080fd5b93969395505050506040820135916060013590565b602081526000610808602083018461269f565b60408152600061278b604083018561269f565b8281036020840152610804818561269f565b6040815260006127b060408301856126cb565b828103602084015261080481856126cb565b805182526020810151602083015260408101516040830152606081015160608301525050565b805182526020908101516001600160601b031916910152565b610100810161281082866127c2565b61281d60808301856127e8565b825160c0830152602083015160e0830152949350505050565b60008060006060848603121561284b57600080fd5b83356001600160401b038082111561286257600080fd5b61286e878388016125af565b9450602086013591508082111561288457600080fd5b612890878388016125af565b935060408601359150808211156128a657600080fd5b506128b3868287016125af565b9150509250925092565b60c081016128cb82856127c2565b61080860808301846127e8565b634e487b7160e01b600052603260045260246000fd5b634e487b7160e01b600052601260045260246000fd5b600082612913576129136128ee565b500690565b634e487b7160e01b600052601160045260246000fd5b60008282101561294057612940612918565b500390565b805160208201516001600160e01b031980821692919060048310156129745780818460040360031b1b83161693505b505050919050565b8051602080830151919081101561299d576000198160200360031b1b821691505b50919050565b600060ff821660ff8416808210156129bd576129bd612918565b90039392505050565b60006000198214156129da576129da612918565b5060010190565b600085516129f3818460208a0161266f565b855190830190612a07818360208a0161266f565b8551910190612a1a81836020890161266f565b8451910190612a2d81836020880161266f565b019695505050505050565b6000816000190483118215151615612a5257612a52612918565b500290565b60008219821115612a6a57612a6a612918565b500190565b600082612a7e57612a7e6128ee565b500490565b60006001600160a01b0383811690831681811015612aa357612aa3612918565b039392505050565b60006001600160a01b0382811684821681151582840482111615612ad157612ad1612918565b02949350505050565b60006001600160a01b03828116848216808303821115612afc57612afc612918565b01949350505050565b60006001600160a01b0382811680821415612b2257612b22612918565b6001019392505050565b60008251612b3e81846020870161266f565b9190910192915050565b600060208284031215612b5a57600080fd5b5051919050565b600061ffff80831681851681830481118215151615612ad157612ad1612918565b600063ffffffff80831681851681830481118215151615612ad157612ad1612918565b60006001600160401b0382811684821681151582840482111615612ad157612ad161291856fea26469706673582212206eb583bd9a3f0dee0b77d269b0c794fd14836d1d5daa26d65f67d8ee2225b20864736f6c63430008090033",
  "linkReferences": {},
  "deployedLinkReferences": {}
}