{
  "_format": "hh-sol-artifact-1",
  "contractName": "BytesLib",
  "sourceName": "contracts/BytesLib.sol",
  "abi": [
    {
      "inputs": [
        {
          "internalType": "uint256",
          "name": "value",
          "type": "uint256"
        },
        {
          "internalType": "uint256",
          "name": "length",
          "type": "uint256"
        }
      ],
      "name": "StringsInsufficientHexLength",
      "type": "error"
    },
    {
      "inputs": [
        {
          "internalType": "string",
          "name": "_str",
          "type": "string"
        }
      ],
      "name": "flipString",
      "outputs": [
        {
          "internalType": "string",
          "name": "",
          "type": "string"
        }
      ],
      "stateMutability": "pure",
      "type": "function"
    }
  ],
  "bytecode": "0x6102e761003a600b82828239805160001a60731461002d57634e487b7160e01b600052600060045260246000fd5b30600052607381538281f3fe73000000000000000000000000000000000000000030146080604052600436106100355760003560e01c8063a671244b1461003a575b600080fd5b61004d61004836600461014e565b610063565b60405161005a91906101fe565b60405180910390f35b60606000829050600081516001600160401b0381111561008557610085610138565b6040519080825280601f01601f1916602001820160405280156100af576020820181803683370190505b5090508060005b835181101561012f578381815181106100d1576100d1610253565b602001015160f81c60f81b8260018387516100ec919061027f565b6100f6919061027f565b8151811061010657610106610253565b60200101906001600160f81b031916908160001a9053508061012781610296565b9150506100b6565b50949350505050565b634e487b7160e01b600052604160045260246000fd5b60006020828403121561016057600080fd5b81356001600160401b038082111561017757600080fd5b818401915084601f83011261018b57600080fd5b81358181111561019d5761019d610138565b604051601f8201601f19908116603f011681019083821181831017156101c5576101c5610138565b816040528281528760208487010111156101de57600080fd5b826020860160208301376000928101602001929092525095945050505050565b600060208083528351808285015260005b8181101561022b5785810183015185820160400152820161020f565b8181111561023d576000604083870101525b50601f01601f1916929092016040019392505050565b634e487b7160e01b600052603260045260246000fd5b634e487b7160e01b600052601160045260246000fd5b60008282101561029157610291610269565b500390565b60006000198214156102aa576102aa610269565b506001019056fea264697066735822122030e5efd1044ac8ab531f4c778780a3de87955c2eba217c9183e54134ad2b2c5464736f6c63430008090033",
  "linkReferences": {},
  "deployedLinkReferences": {}
}