{
  "_format": "hh-sol-artifact-1",
  "contractName": "SchnorrAccountAbstraction",
  "sourceName": "contracts/SchnorrN.sol",
  "abi": [
    {
      "inputs": [
        {
          "internalType": "address[]",
          "name": "addrs",
          "type": "address[]"
        }
      ],
      "stateMutability": "nonpayable",
      "type": "constructor"
    },
    {
      "inputs": [
        {
          "internalType": "address",
          "name": "",
          "type": "address"
        }
      ],
      "name": "canSign",
      "outputs": [
        {
          "internalType": "bytes32",
          "name": "",
          "type": "bytes32"
        }
      ],
      "stateMutability": "view",
      "type": "function"
    },
    {
      "inputs": [
        {
          "internalType": "bytes32",
          "name": "hash",
          "type": "bytes32"
        },
        {
          "internalType": "bytes",
          "name": "signature",
          "type": "bytes"
        }
      ],
      "name": "isValidSignature",
      "outputs": [
        {
          "internalType": "bytes4",
          "name": "",
          "type": "bytes4"
        }
      ],
      "stateMutability": "view",
      "type": "function"
    }
  ],
  "bytecode": "0x608060405234801561001057600080fd5b5060405161063f38038061063f83398101604081905261002f916100cf565b805160005b8181101561009557600160001b60008085848151811061005657610056610193565b60200260200101516001600160a01b03166001600160a01b0316815260200190815260200160002081905550808061008d906101a9565b915050610034565b5050506101d2565b634e487b7160e01b600052604160045260246000fd5b80516001600160a01b03811681146100ca57600080fd5b919050565b600060208083850312156100e257600080fd5b82516001600160401b03808211156100f957600080fd5b818501915085601f83011261010d57600080fd5b81518181111561011f5761011f61009d565b8060051b604051601f19603f830116810181811085821117156101445761014461009d565b60405291825284820192508381018501918883111561016257600080fd5b938501935b8285101561018757610178856100b3565b84529385019392850192610167565b98975050505050505050565b634e487b7160e01b600052603260045260246000fd5b60006000198214156101cb57634e487b7160e01b600052601160045260246000fd5b5060010190565b61045e806101e16000396000f3fe608060405234801561001057600080fd5b50600436106100365760003560e01c80631626ba7e1461003b5780637ef305201461006c575b600080fd5b61004e610049366004610302565b61009a565b6040516001600160e01b031990911681526020015b60405180910390f35b61008c61007a36600461037d565b60006020819052908152604090205481565b604051908152602001610063565b60008060001b6000806100e38787878080601f01602080910402602001604051908101604052809392919081815260200183838082843760009201919091525061012992505050565b6001600160a01b03166001600160a01b0316815260200190815260200160002054146101175750630b135d3f60e11b610122565b506001600160e01b03195b9392505050565b60008060008060008580602001905181019061014591906103a6565b9350935093509350600070014551231950b75fc4402da1732fc9bebe198061016f5761016f6103ed565b85840961018e9070014551231950b75fc4402da1732fc9bebe19610403565b9050600070014551231950b75fc4402da1732fc9bebe198686096101c49070014551231950b75fc4402da1732fc9bebe19610403565b905070014551231950b75fc4402da1732fc9bebe198214156101e557600080fd5b6040805160008082526020820180845285905260ff861692820192909252606081018890526080810183905260019060a0016020604051602081039080840390855afa158015610239573d6000803e3d6000fd5b5050604051601f1901519150506001600160a01b0381166102935760405162461bcd60e51b815260206004820152601060248201526f1958dc9958dbdd995c8819985a5b195960821b604482015260640160405180910390fd5b6040516001600160601b0319606083901b1660208201526001600160f81b031960f886901b16603482015260358101889052605581018b90526075016040516020818303038152906040528051906020012086146102f25760006102f4565b865b9a9950505050505050505050565b60008060006040848603121561031757600080fd5b8335925060208401356001600160401b038082111561033557600080fd5b818601915086601f83011261034957600080fd5b81358181111561035857600080fd5b87602082850101111561036a57600080fd5b6020830194508093505050509250925092565b60006020828403121561038f57600080fd5b81356001600160a01b038116811461012257600080fd5b600080600080608085870312156103bc57600080fd5b845193506020850151925060408501519150606085015160ff811681146103e257600080fd5b939692955090935050565b634e487b7160e01b600052601260045260246000fd5b60008282101561042357634e487b7160e01b600052601160045260246000fd5b50039056fea2646970667358221220116010ff4e460d6fe8837de6fb8c40e8171dab97ab5795cb3934d2e3e77ab92164736f6c63430008090033",
  "linkReferences": {},
  "deployedLinkReferences": {}
}